:02000004080AE8
:1000000000000A08F4180A080000060006000501AE
:080010000402DB070000000000
:0400180070160A084C
:10001C0009480A4908B5884205D0094A824202D0EB
:10002C00121A01F0C1FA0748074A0021121A01F00E
:10003C00C9FA064808BD00BF0000002064180A0871
:10004C0068000020680000205001002050010020B2
:10005C0070B500F057FC0025054E064CA41BA408F7
:10006C00A54200D170BD56F8043B98470135F7E71F
:10007C003C180A085C180A0800F030B808B500F003
:10008C004BF8BDE8084000F0FFBB00F045BA00F0AB
:10009C0043BA00F049BA0078B0FA80F040097047D2
:1000AC000123037070470121084600F0B5B838B53C
:1000BC00046805467CB16368013B63605BB92368E7
:1000CC0020469B689847A368013BA3601BB9236833
:1000DC002046DB689847284638BD00001FB50A4B00
:1000EC000A4A1B780A498DF8003002A8002300F058
:1000FC0061FD03A8FFF7DBFF064B0321188801F015
:10010C00CFF905B05DF804FB7000002084160A08D6
:10011C008A160A087800002070B50025214E88B098
:10012C003378214C214A22498DF8003006A83C2313
:10013C00256000F03FFD07A8FFF7B9FF40F6B83087
:10014C0000F03AFB23681B49AB420CBF01232B4642
:10015C0023603378154A8DF8003008BF0A463C23DB
:10016C00134906A800F026FD07A8FFF7A0FF40F6EC
:10017C00B83000F021FB104A104B12881B68ADF808
:10018C00162002228DF815200122CDE90153009290
:10019C000DF115030DF1160106A800F051FA08B087
:1001AC0070BD00BF700000207400002093160A0878
:1001BC008A160A0890160A08780000206C000020A5
:1001CC000023034A1360034A1370FFF76CBF00BF90
:1001DC006C0000207000002010B50446806808B147
:1001EC0000F02AF8204610BD08B5024B1B689B682E
:1001FC00019308BDB001060808B5024B1B685B688B
:10020C00019308BD9C01060808B5024B1B685B698D
:10021C00019308BD9C01060808B5024B1B685B6E78
:10022C00019308BDB801060808B5024B1B685B6C4E
:10023C00019308BDD001060808B5024B1B689B6CE6
:10024C00019308BDD001060808B5024B1B689B69D9
:10025C00019308BDC401060808B5024B1B685B6A14
:10026C00019308BDC401060808B5024B1B689B6AC4
:10027C00019308BDC401060808B5024B1B68DB6A74
:10028C00019308BDC401060808B5024B1B681B6B23
:10029C00019308BDC401060808B5024B1B685B6BD3
:1002AC00019308BDC401060808B5024B1B689B6B83
:1002BC00019308BDC401060808B5024B1B681B6CF2
:1002CC00019308BDC401060808B5024B1B681B6EE0
:1002DC00019308BDAC01060808B5024B1B685B6EA8
:1002EC00019308BDAC01060808B5024B1B689B6E58
:1002FC00019308BDAC01060808B5024B1B68DB6E08
:10030C00019308BDAC01060808B5024B1B681B6FB6
:10031C00019308BDAC01060808B5024B1B685B6F66
:10032C00019308BDAC01060808B5034B1B68D3F854
:10033C008030019308BD0000AC01060808B5024BE3
:10034C001B68DB69019308BDB401060808B5024BB4
:10035C001B681B6A019308BDB401060808B5024B63
:10036C001B681B68019308BDD801060808B5024B31
:10037C001B681B69019308BDD801060808B5024B20
:10038C001B685B69019308BDD801060808B5024BD0
:10039C001B689B69019308BDD801060808B5024B80
:1003AC001B68DB69019308BDD801060808B5024B30
:1003BC001B681B6A019308BDD801060808B5024BDF
:1003CC001B689B6C019308BDC001060808B5024B65
:1003DC001B685B68019308BDA401060808B5024BB5
:1003EC001B685B69019308BDA401060808B5024BA4
:1003FC001B68DB6C019308BDA401060808B5024B11
:10040C001B685B6D019308BDA401060808B5034B7E
:10041C001B68D3F89030019308BD0000A4010608B6
:10042C0008B5034B1B68D3F89C30019308BD000042
:10043C00A401060808B5034B1B68D3F8A830019338
:10044C0008BD0000A401060808B5024B1B685B68D8
:10045C00019308BDC801060808B5024B1B689B68D0
:10046C00019308BDC801060808B5024B1B68DB6880
:10047C00019308BDC801060808B5024B1B681B692F
:10048C00019308BDC801060808B5024B1B685B69DF
:10049C00019308BDC801060808B5024B1B689B698F
:1004AC00019308BDC801060808B5024B1B68DB693F
:1004BC00019308BDC801060808B5024B1B681B6AEE
:1004CC00019308BDC801060808B5024B1B681B6BDD
:1004DC00019308BDC801060808B5024B1B685B6B8D
:1004EC00019308BDC801060808B5024B1B685B697F
:1004FC00019308BDCC01060808B5024B1B681B6AAA
:10050C00019308BDCC01060808B5024B1B68DB6BD8
:10051C00019308BDCC01060808B5024B1B681B688B
:10052C00019308BDA001060808B5024B1B685B6867
:10053C00019308BDA001060808B5024B1B68DB6AD5
:10054C00019308BDA001060808B5024B1B681B6B84
:10055C00019308BDA001060808B5024B1B685B6C33
:10056C00019308BDA001060870B5002604460D468F
:10057C0040F8086FFFF758FE28462570FFF7DEFE9F
:10058C002046666070BD10B50446006818B1FFF7D0
:10059C00CBFF0023236010BD10B50446FFF7F3FF1B
:1005AC00204610BD38B5B1F904300D4683800B469A
:1005BC0053F8062F0446C0F806209B884381FFF7AA
:1005CC00E2FF2B6813B1236000232B60204638BD5B
:1005DC00B1F9043010B50A6833B932B951F8063F95
:1005EC0003608B88838010BD22B19488012C03D0CA
:1005FC00042C06D0042205E092898C710B814A816F
:10060C00ECE702220B814FF6FF738A714B81E5E711
:10061C0010B50024047044804FF6FF7400298480C8
:10062C0008DD01398B4204D932F811308380012363
:10063C00037010BD01D10223FAE74180F9E70000F5
:10064C00F0B50D46164600278BB01A46129B044691
:10065C000193119B314600932846109B0297FFF79C
:10066C00E9FE334601462A4605A8FFF7D1FF0F4D98
:10067C009DF81410BDF91620BDF818308DF8221015
:10068C00284607A9ADF82420ADF826300797ADF819
:10069C002070FFF787FF07A8FFF775FF2046294654
:1006AC00FFF796FF20460BB0F0BD00BF8C0000207A
:1006BC000222002010B5084B084C1A60084B206031
:1006CC00A080A071A360FFF781FE2046BDE810401A
:1006DC00044A054900F04EBF980000208C00002011
:1006EC000000FFFF68000020A5050A08F8B50646C3
:1006FC000D4600248F18BD420CD0336830469B68E1
:10070C0015F8011B9847031E01DB1C44F3E7002C72
:10071C0008BF1C462046F8BD70B505460C46084679
:10072C0049B100F096FF2B68024621462846BDE8E9
:10073C007040DB68184770BD03689B68184700233E
:10074C00012A98BF0A2230B58BB00C468DF82430A4
:10075C0009A92546B4FBF2F404FB1253DBB2092BB6
:10076C0094BF30333733DBB2AA4201F8013DF0D9E4
:10077C00FFF7D2FF0BB030BD002340681A46194674
:10078C00FFF782BE0B68036013B15A6801325A60DE
:10079C0070470000014B024A1A6070479C00002011
:1007AC0097160A08024B1A68024B1A60704700BF72
:1007BC0000000020A00000200021FFF70FBE10B5A4
:1007CC008368044613B1032201469847204610BDA6
:1007DC0010B50446FFF7F3FF204610BD13B56C4669
:1007EC000B46024603C884E8030093E8030082E842
:1007FC00030094E8030083E8030002B010BD00007E
:10080C0000230348034A0449836000F0B3BE00BFD1
:10081C00A400002068000020DD070A08014B1860C6
:10082C00704700BF0400002008B5134B43B100F023
:10083C00F3FB03681B699847002801DDAFF30080C8
:10084C000E4B43B100F092FC03681B6998470028DB
:10085C0001DDAFF300800A4B0BB1AFF30080094B05
:10086C0043B100F009FC03681B699847002801DDBF
:10087C00AFF3008008BD00BF0000000000000000C6
:10088C00000000000000000008B5FFF7CDFFFFF7E7
:10089C00BBFC014B186008BD1C0100200248034A38
:1008AC000349121A00F080BE00400240044002408E
:1008BC0060180A08002307B51A466FF077010093F9
:1008CC00FFF7AEFD03B05DF804FB000007B54388ED
:1008DC000A2B08D0502B0BD1094B1B684BB103B022
:1008EC005DF804EB1847FFF7E5FF03B05DF804FB78
:1008FC0000231A466FF077010093FFF791FDF4E7A0
:10090C00B800002038B5124C00211248FFF724FE25
:10091C00114D2368AB420CBF012200220F4B1A7001
:10092C0002D0FFF7BBFF2560FFF766FC044600F022
:10093C0051FE0B4B13B12046AFF300800021084849
:10094C00FFF7E2FDBDE8384000210648FFF75EBD29
:10095C000040024029080A081E1C279AB4000020F7
:10096C0000000000D9080A0870470020704710B535
:10097C000446102100F003FE204610BD08B5FFF719
:10098C00F6FF08BD002230B54FF69C7402608480DF
:10099C008D888C800C68858004600A6030BD10B531
:1009AC0004460068FFF7C0FD204610BD38B5C4688A
:1009BC00F4B12378022B03D104F10C00FFF7EFFF05
:1009CC00656835B12846FFF7FAFE1021284600F07D
:1009DC00D6FDA56835B12846FFF7F1FE1021284653
:1009EC0000F0CDFD2046BDE83840142100F0C7BD15
:1009FC0038BD73B50E46044656F8043B0D4601A8A7
:100A0C0031460093FFF7BEFE009B019A2360002342
:100A1C00626001A801930093FFF749FB3046FFF792
:100A2C0046FB2846082100F0AAFD204602B070BD06
:100A3C00826810B50AB900F0A6FDC368BDE8104085
:100A4C00184708B5006800F11001FFF7F1FF08BD69
:100A5C00826810B50AB900F096FDC368BDE8104075
:100A6C00184708B5006800F11001FFF7F1FF08BD49
:100A7C0038B500230446036010200D46FFF705FB34
:100A8C0028B10123C0E90133024BC560036020602B
:100A9C00204638BDC0160A0838B5002383608B6821
:100AAC0004460D462BB102229847EB68E360AB6815
:100ABC00A360204638BD0000F0B589B004686846D4
:100ACC00FFF760FF4FF00203D4E84F2F002A03D149
:100ADC00C4E8413F0029F7D125D104F10C05694642
:100AEC002846FFF74FFF0123BFF35B8F6370002095
:100AFC00BFF35B8F04F1080353E8006F43E8000277
:100B0C00002AF9D1BFF35B8F6EB1FFF76FFC78B1A0
:100B1C0029463046FFF78CFF3046FFF750FE102178
:100B2C00304600F02CFD6846FFF739FF09B0F0BDE8
:100B3C00314602A8FFF7B0FFE068B4F9105008B1D5
:100B4C0000F06CFD06901020ADF81C50FFF79DFADC
:100B5C000546E8B1002787601820FFF796FA04468F
:100B6C0088B10146876002A8FFF738FE049BA26893
:100B7C00A360059B0492E26806A9E36004F11000EF
:100B8C000592FFF7FFFE084B2C60EB60074BAB6048
:100B9C0006A8FFF704FF02A8FFF711FE0022294662
:100BAC000348FFF72BFCB7E74F0A0A08E50C0A08C5
:100BBC00FD110A082DE9F0478AB005460C46174688
:100BCC0098469DF84890FFF78FFC07AE824638BBDD
:100BDC004FF62E73059005A93046ADF81830FFF787
:100BEC00D1FE1420FFF751FA044648B102230370DA
:100BFC000123C0E901AA437031460C30FFF7C2FE55
:100C0C002846214640F8044BFFF732FF3046FFF7E9
:100C1C00C6FE05A8FFF7C3FE28460AB0BDE8F0875C
:100C2C000C234FF0000A1420CDE908AA0793FFF714
:100C3C002CFA014628B1C0E901AA80F800A080F87E
:100C4C0001A004A80391FFF713FF224B082008937F
:100C5C00FFF71BFA824628B1039B04A940F8043B1A
:100C6C00FFF790FD42463946204600965FFA89F31D
:100C7C00CDF824A0FFF740FCB8B9039B5B7803F0D8
:100C8C00FF0293B94FF69C7305A903A80592ADF822
:100C9C001830FFF711FF05A8FFF781FE05A8099989
:100CAC00FFF7A7FE06A8FFF702FA039B04A906A804
:100CBC000593FFF767FD059B069A2B6000236A607E
:100CCC0006A806930593FFF7F2F904A8FFF7EFF9CE
:100CDC00A2E700BFA90D0A08022AF8B5054607D0FD
:100CEC00032A18D0012A01D10B6803600020F8BD3B
:100CFC0018200E68FFF7C9F9044650B13146FFF7CA
:100D0C00CBFE3069B6F9147008B100F087FC206195
:100D1C00A7822C60EAE70468002CE7D004F11000ED
:100D2C00FFF73DFE2046FFF74AFD1821204600F054
:100D3C0026FCDBE738B5002383608B6804460D4640
:100D4C002BB102229847EB68E360AB68A3602046A6
:100D5C0038BD022A70B5044607D0032A12D0012AE6
:100D6C0001D10B680360002070BD14200E68FFF7E2
:100D7C008CF9054620B13146FFF7DCFF337C2B7430
:100D8C002560F0E70468002CEDD02046FFF717FD36
:100D9C001421204600F0F3FBE5E70000F0B5044613
:100DAC0089B00D4601A81146FFF723FEA4B124B269
:100DBC001DB1284600F032FC054601A803A9039595
:100DCC00ADF81040FFF778FE03A8FFF7E8FD02A886
:100DDC00FFF76DF909B0F0BD0123019DD5E84F2F48
:100DEC00002A03D1C5E8413F0029F7D1EFD12B737D
:100DFC00BFF35B8F6B70BFF35B8F2B1D53E8006FE2
:100E0C0043E80042002AF9D1BFF35B8F002EDED0FD
:100E1C002046FFF7EBFA074660B1304605F10C01AE
:100E2C00FFF716FE3046FFF7CAFC1021304600F0E3
:100E3C00A6FBCCE7314603A8FFF77CFF2B7B1020E9
:100E4C008DF81C30FFF721F90546D0B187601420CE
:100E5C00FFF71BF9044678B10146876003A8FFF73A
:100E6C00BDFC059BA268A360069B0592E268E3604B
:100E7C009DF81C3006922374064B2C60EB60064BDD
:100E8C00AB6003A8FFF79BFC002229460348FFF741
:100E9C00B5FAC7E76F0A0A085F0D0A08FD110A08C0
:100EAC00704710B50446182100F069FB204610BDB0
:100EBC00F8B50E46002400F10807051D17F8011DB2
:100ECC000A223046FFF73BFCAF42044401D12046D6
:100EDC00F8BD002CF2D02E213046FFF72DFC044437
:100EEC00ECE7000010B50446044B1122002140F839
:100EFC00043B00F067FB204610BD00BFDC160A085F
:100F0C000346074A10B543F8042B01F1100251F8BF
:100F1C00044B914243F8044BF9D10A781A7010BD76
:100F2C00DC160A08024AC0E9002104220275704747
:100F3C00DC160A0810B59DF8084044EA0324042383
:100F4C0044EA024444EA01644460037510BD0000A5
:100F5C0037B5044D05609DF818500095FFF7EAFF72
:100F6C0003B030BDDC160A0841747047704708B5F1
:100F7C000021007CFFF70AFA40EAE07008BD08B5D2
:100F8C000121007CFFF702FA40EAE07008BD08B5C9
:100F9C00007CFFF7F3F920EAE07008BD08B5007C8F
:100FAC00FFF7E4F920EAE07008BD38B50446007C90
:100FBC000D46FFF7E3F9002801DC607C28B12946D7
:100FCC00207CFFF7EBF920EAE07038BD007CFFF7DE
:100FDC00EDB910B50446142100F0D1FA204610BD2D
:100FEC0010B54FF47A73044608460021C4E9011386
:100FFC00044B20742360012311466374FFF7AEF990
:10100C00204610BDF0160A0810B504461422002123
:10101C0000F0D8FA204610BD30B50F4D87B001A8AE
:10102C00FFF7F2FF2978BFF35B8F11F0010410D1A9
:10103C002846FFF730F860B1214601AA0748FFF7B0
:10104C00CFFF2846FFF72CF8054A0649034800F065
:10105C0091FA024807B030BDBC000020C40000204B
:10106C0068000020790F0A0810B5044614220021EC
:10107C0000F0A8FA204610BD10B50F4C86B001A8A0
:10108C00FFF7F2FF2378BFF35B8FDB0710D420460A
:10109C00FFF701F860B1012101AA0848FFF7A0FF92
:1010AC002046FEF7FDFF064A0649044800F062FAA6
:1010BC00024806B010BD00BFC0000020D8000020C0
:1010CC0068000020790F0A0870474174704708B512
:1010DC00007CFFF7F1F820EAE07008BD08B5007C51
:1010EC00FFF7C2F820EAE07008BD08B5007CFFF7F6
:1010FC00CBF840EAE07008BD08B5007CFFF7BCF8FF
:10110C0040EAE07008BD007CFFF7C6B870B5467CBD
:10111C0004460D462EB12946207CBDE87040FFF7F1
:10112C009BB8007CFFF7C8F80028F4DC304670BD93
:10113C0010B50446142100F022FA204610BD000020
:10114C004FF0000C10B50446084611464FF47A7265
:10115C00C4E901C2044A20742260012262741A4656
:10116C00FFF772F8204610BD20170A08F8B51A4C84
:10117C0026684EB98420FEF788FF054618B18422F4
:10118C00314600F01FFA2560144D2F684FB98420AA
:10119C00FEF77BFF064618B18422394600F012FA9E
:1011AC002E600F4F3978BFF35B8F11F0010611D110
:1011BC003846FEF770FF68B1314622682B68094843
:1011CC00FFF7BEFF3846FEF76BFF074A0749054895
:1011DC0000F0D0F90348F8BDF0000020F400002026
:1011EC00EC000020F800002068000020D5100A0850
:1011FC0010B5836804460BB900F0C5F9C36898476D
:10120C00A3681BB103222146204698472046BDE81F
:10121C001040102100F0B3B97047F8B506461546DA
:10122C000C468F18BC4206D0336830469B6814F8C5
:10123C00011B9847F6E72846F8BD0022007CFFF713
:10124C0043B80021007CFFF747B80021007CFFF772
:10125C004BB80021007CFFF74FB80021007CFFF752
:10126C0053B810B50446142100F089F9204610BD7E
:10127C0010B54FF47A73044608460021C4E90113F3
:10128C00034B114623602074FFF74EF8204610BD27
:10129C0050170A08002240681146FFF7EDB8F0B568
:1012AC00154689B011220E460446002103A800F011
:1012BC0089F9284600F0CDF9002781B273682846D9
:1012CC00009703AAFFF77AF830B139462046FFF7AA
:1012DC0029FE204609B0F0BD204603A9FFF710FEF9
:1012EC00F7E7002240681146FFF7E6B80022406895
:1012FC001146FFF7F1B800224068FFF7E5B800226D
:10130C00406881F00101FFF7CFB8002340681A460E
:10131C001946FFF7C1B8002240681146FFF79CB888
:10132C00002202214068FFF79FB8002340681A464C
:10133C00FFF78AB80422024B5A60024A1A607047BF
:10134C000C01002078170A08002340681A46FFF7A2
:10135C007BB8002202214068FFF786B80022406863
:10136C001146FFF779B8002240681146FFF784B8A0
:10137C00002340681A461946FFF786B800234068D8
:10138C001A461946FFF788B80022406881F001011F
:10139C00FFF78AB800224068FFF796B80022406831
:1013AC001146FFF799B8002240681146FFF784B840
:1013BC0070B515468EB0044608A8FFF793FD1122B0
:1013CC00002103A800F0FEF80026284600F041F9A1
:1013DC000A4B009681B25B68284603AAFEF7EEFF23
:1013EC0030B131462046FFF79DFD20460EB070BD52
:1013FC00204603A9FFF784FDF7E700BF0C0100208E
:10140C00024B034A1A6000225A60704714010020F4
:10141C00AC170A08172870B5044601D9002070BD16
:10142C00A0F10D03022B0BD9012826D800F07AF875
:10143C000021007CFEF770FF80F00100C0B2EEE7E7
:10144C00134E3178BFF35B8F11F001050FD130468D
:10145C00FEF721FE58B129460E48FFF785F83046B5
:10146C00FEF71EFE0C4A0D490A4800F083F8094BA2
:10147C001878FEF76BFF0028D0D1123C012C05D850
:10148C00FFF774FE007CFEF70FFFD5E70120C6E7DF
:10149C007C0000208000002068000020E5010A0884
:1014AC00172838B504460D460AD8FF2908D0FFF78F
:1014BC00B1FF28B129462046BDE83840FEF794BE5E
:1014CC0038BD0000002313B5074C1A4619462046B8
:1014DC000093FFF73DFD2046044A054902B0BDE8E4
:1014EC00104000F047B800BF200100206800002029
:1014FC00AD0E0A08002370B5202543801423084E36
:10150C0004460380314685600561284600F039F8B1
:10151C0031466060284600F034F8E060204670BD2B
:10152C00D8170A0830B50F4D87B02978BFF35B8FF9
:10153C0011F0010413D12846FEF7ADFD78B101A8D6
:10154C00FFF7D8FF214601AA0748FFF791FE28466E
:10155C00FEF7A6FD054A0649034800F00BF80248C1
:10156C0007B030BD380100203C010020680000208D
:10157C0025120A080B460146184600F007B8FEF77C
:10158C0088BDFEF784BD08B5FEF7D6FF10B504463E
:10159C000448134620B10A4602202146AFF30080CE
:1015AC0010BD00BF000000000A44914200F1FF335F
:1015BC0000D1704710B511F8014B914203F8014F5F
:1015CC00F9D110BD03460244934200D1704703F891
:1015DC00011BF9E738B50D4B04461D68AB6B7BB9A5
:1015EC001820FEF799FF0A4A0A4BA863C0E90023AA
:1015FC00094B012283600B2383810023C0E9042360
:10160C000022AB6B1C615A6138BD00BF0400002086
:10161C000E33CDAB34126DE6ECDE0500024B014609
:10162C00186800F003B800BF0400002070B5044631
:10163C0008460D4600F00DF8461C31462046FEF7D4
:10164C0083FF044618B132462946FFF7ADFF20460A
:10165C0070BD034613F8012B002AFBD1181A013870
:10166C00704700001D000A085D000A0885000A0882
:10167C0089000A0800000000537461746500536C03
:10168C00656570004F4E004F464600617070002536
:10169C00592D256D2D25645425483A254D3A255351
:1016AC00257A0061736374696D65000000000000A9
:1016BC000000000075090A087B090A08B9090A0824
:1016CC0089090A0877090A080000000000000000D8
:1016DC00BD0E0A08AD0E0A08AF0E0A080000000085
:1016EC0000000000790F0A08DF0F0A08B70F0A087C
:1016FC00F9060A08A90F0A087B0F0A088B0F0A08BB
:10170C00D90F0A089B0F0A08750F0A080000000081
:10171C0000000000D5100A083D110A0819110A082A
:10172C00F9060A08E9100A0805110A08F7100A0850
:10173C0013110A08D7100A08DB100A080000000071
:10174C000000000025120A086F120A0847120A0846
:10175C0027120A084F120A0857120A085F120A08C1
:10176C0067120A08000000000000000037130A0886
:10177C002D130A0823130A08A1120A0885070A0860
:10178C0017130A080B130A0803130A08F9120A089C
:10179C00EF120A08AB120A0800000000000000005B
:1017AC0055130A085F130A0869130A0873130A0809
:1017BC007D130A0889130A0895130A08A1130A084D
:1017CC00A9130A08B3130A08BD130A080000000085
:1017DC0000000000000000000000000000000000FD
:1017EC0000000000000000000000000000000000ED
:1017FC0000000000000000000000000000000000DD
:10180C0000000000000000000000000000000000CC
:10181C0000000000000000000000000000000000BC
:10182C0000000000000000000000000000000000AC
:10183C00CD010A08BD060A08A1070A08B1070A0863
:10184C000D080A0841130A080D140A08D1140A08D5
:04185C000000000088
:041860000000000084
:10186400AF160A080800002000000000FC170A0850
:101874001C180A08DC170A08000000000000000019
:101884000000000000000000000000000000000054
:101894000000000000000000000000000000000044
:1018A4000000000000000000000000000000000034
:1018B4000000000000000000000000000000000024
:0818C40000000000000000001C
:1018CC00FFFFFFFF00000102030405060708090AD9
:1018DC000B0C0D0E0F101112131415161718191AD4
:0818EC001B1C1D1E1F2028001B
:0418F40078563412DC
:04000005080A001CC9
:00000001FF
