:02000004080AE8
:1000000000000A08F4180A080000060006000501AE
:080010000402DB070000000000
:0400180070160A084C
:10001C0009480A4908B5884205D0094A824202D0EB
:10002C00121A01F0C1FA0748074A0021121A01F00E
:10003C00C9FA064808BD00BF0000002064180A0871
:10004C0068000020680000205001002050010020B2
:10005C0070B500F0E7FF0025054E064CA41BA40864
:10006C00A54200D170BD56F8043B98470135F7E71F
:10007C003C180A085C180A0800F030B808B500F003
:10008C004BF8BDE8084000F08FBF00F045BA00F017
:10009C0043BA00F049BA0078B0FA80F040097047D2
:1000AC000123037070470121084600F06FB938B581
:1000BC00046805467CB16368013B63605BB92368E7
:1000CC0020469B689847A368013BA3601BB9236833
:1000DC002046DB689847284638BD00001FB50A4B00
:1000EC000A4A1B780A498DF8003002A8002300F058
:1000FC00AFFD03A8FFF7DBFF064B0321188801F0C7
:10010C0027FA05B05DF804FB7000002084160A087D
:10011C008A160A087800002070B50025214E88B098
:10012C003378214C214A22498DF8003006A83C2313
:10013C00256000F08DFD07A8FFF7B9FF40F6B83039
:10014C0000F0B6FF23681B49AB420CBF01232B46C2
:10015C0023603378154A8DF8003008BF0A463C23DB
:10016C00134906A800F074FD07A8FFF7A0FF40F69E
:10017C00B83000F09DFF104A104B12881B68ADF888
:10018C00162002228DF815200122CDE90153009290
:10019C000DF115030DF1160106A801F0D5F808B004
:1001AC0070BD00BF700000207400002093160A0878
:1001BC008A160A0890160A08780000206C000020A5
:1001CC000023034A1360034A1370FFF76CBF00BF90
:1001DC006C0000207000002010B50446806808B147
:1001EC0000F0CCF8204610BD08B5024B1B689B6C88
:1001FC00019308BDC001060808B5024B1B681B68BB
:10020C00019308BDD801060808B5024B1B681B6991
:10021C00019308BDD801060808B5024B1B685B6941
:10022C00019308BDD801060808B5024B1B689B69F1
:10023C00019308BDD801060808B5024B1B68DB69A1
:10024C00019308BDD801060808B5024B1B681B6A50
:10025C00019308BDD801060808B5024B1B681B6E3C
:10026C00019308BDAC01060808B5024B1B685B6E18
:10027C00019308BDAC01060808B5024B1B689B6EC8
:10028C00019308BDAC01060808B5024B1B68DB6E78
:10029C00019308BDAC01060808B5024B1B681B6F27
:1002AC00019308BDAC01060808B5024B1B685B6FD7
:1002BC00019308BDAC01060808B5034B1B68D3F8C5
:1002CC008030019308BD0000AC01060808B5024B54
:1002DC001B68DB69019308BDB401060808B5024B25
:1002EC001B681B6A019308BDB401060808B5024BD4
:1002FC001B689B69019308BDC401060808B5024B35
:10030C001B685B6A019308BDC401060808B5024B63
:10031C001B689B6A019308BDC401060808B5024B13
:10032C001B68DB6A019308BDC401060808B5024BC3
:10033C001B681B6B019308BDC401060808B5024B72
:10034C001B685B6B019308BDC401060808B5024B22
:10035C001B689B6B019308BDC401060808B5024BD2
:10036C001B681B6C019308BDC401060808B5024B41
:10037C001B685B6C019308BDD001060808B5024BE5
:10038C001B689B6C019308BDD001060808B5024B95
:10039C001B685B6E019308BDB801060808B5024BDB
:1003AC001B685B68019308BD9C01060808B5024BED
:1003BC001B685B69019308BD9C01060808B5024BDC
:1003CC001B689B68019308BDB001060808B5024B79
:1003DC001B685B69019308BDCC01060808B5024B8C
:1003EC001B681B6A019308BDCC01060808B5024BBB
:1003FC001B68DB6B019308BDCC01060808B5024BEA
:10040C001B685B68019308BDC801060808B5024B60
:10041C001B689B68019308BDC801060808B5024B10
:10042C001B68DB68019308BDC801060808B5024BC0
:10043C001B681B69019308BDC801060808B5024B6F
:10044C001B685B69019308BDC801060808B5024B1F
:10045C001B689B69019308BDC801060808B5024BCF
:10046C001B68DB69019308BDC801060808B5024B7F
:10047C001B681B6A019308BDC801060808B5024B2E
:10048C001B681B6B019308BDC801060808B5024B1D
:10049C001B685B6B019308BDC801060808B5024BCD
:1004AC001B685B68019308BDA401060808B5024BE4
:1004BC001B685B69019308BDA401060808B5024BD3
:1004CC001B68DB6C019308BDA401060808B5024B40
:1004DC001B685B6D019308BDA401060808B5034BAE
:1004EC001B68D3F89030019308BD0000A4010608E6
:1004FC0008B5034B1B68D3F89C30019308BD000072
:10050C00A401060808B5034B1B68D3F8A830019367
:10051C0008BD0000A401060808B5024B1B681B6847
:10052C00019308BDA001060808B5024B1B685B6867
:10053C00019308BDA001060808B5024B1B68DB6AD5
:10054C00019308BDA001060808B5024B1B681B6B84
:10055C00019308BDA001060808B5024B1B685B6C33
:10056C00019308BDA001060810B58368044613B1B9
:10057C00032201469847204610BD002340681A46C6
:10058C00FFF73CBF002202214068FFF747BF002263
:10059C0040681146FFF73ABF002240681146FFF74A
:1005AC0045BF002340681A461946FFF747BF002392
:1005BC0040681A461946FFF749BF0022406881F08F
:1005CC000101FFF74BBF00224068FFF757BF002225
:1005DC0040681146FFF75ABF002240681146FFF7EA
:1005EC0045BF000070B515468EB0044608A800F053
:1005FC00AFF91122002103A800F0E4FF00262846E1
:10060C0001F027F80A4B009681B25B68284603AAD2
:10061C00FFF7EAFD30B13146204600F0B9F920462B
:10062C000EB070BD204603A900F0A0F9F7E700BF9B
:10063C0094000020024B034A1A6000225A60704753
:10064C008C000020A0160A08002240681146FFF713
:10065C00EDBEF0B5154689B011220E4604460021B8
:10066C0003A800F0AFFF284600F0F3FF002781B28B
:10067C0073682846009703AAFFF7B6FD30B13946D8
:10068C00204600F085F9204609B0F0BD204603A9AC
:10069C0000F06CF9F7E7002240681146FFF7E6BE60
:1006AC00002240681146FFF7F1BE00224068FFF7B8
:1006BC00E5BE0022406881F00101FFF7CFBE0023A8
:1006CC0040681A461946FFF7C1BE002340681A4617
:1006DC001946FFF7B3BE002240681146FFF796BEDD
:1006EC00002202214068FFF799BE002340681A4699
:1006FC00FFF784BE0422024B5A60024A1A6070470C
:10070C0094000020D4160A0810B5836804460BB96F
:10071C0000F038FFC3689847A3681BB10322214639
:10072C00204698472046BDE81040102100F026BF17
:10073C007047F8B5064615460C468F18BC4206D0D5
:10074C00336830469B6814F8011B9847F6E7284637
:10075C00F8BD0022007CFFF77FBD0021007CFFF775
:10076C0083BD0021007CFFF787BD0021007CFFF7D3
:10077C008BBD0021007CFFF78FBD10B50446142102
:10078C0000F0FCFE204610BD10B54FF47A73044601
:10079C0008460021C4E90113034B11462360207461
:1007AC00FFF78AFD204610BD08170A0841747047F0
:1007BC00704708B50021007CFFF736FD40EAE07079
:1007CC0008BD08B50121007CFFF72EFD40EAE07062
:1007DC0008BD08B5007CFFF71FFD20EAE07008BDDE
:1007EC0008B5007CFFF710FD20EAE07008BD38B5B5
:1007FC000446007C0D46FFF70FFD002801DC607CF1
:10080C0028B12946207CFFF717FD20EAE07038BD9F
:10081C00007CFFF719BD10B50446142100F0AEFEA4
:10082C00204610BD10B54FF47A73044608460021DB
:10083C00C4E90113044B2074236001231146637433
:10084C00FFF7DAFC204610BD30170A0810B5044635
:10085C001422002100F0B6FE204610BD30B50F4D1D
:10086C0087B001A8FFF7F2FF2978BFF35B8F11F077
:10087C00010410D12846FFF70EFC60B1214601AAF5
:10088C000748FFF7CFFF2846FFF70AFC054A064941
:10089C00034800F06EFE024807B030BD9C000020FB
:1008AC00A400002068000020BD070A0810B504460B
:1008BC001422002100F086FE204610BD10B50F4C0E
:1008CC0086B001A8FFF7F2FF2378BFF35B8FDB073D
:1008DC0010D42046FFF7DFFB60B1012101AA0848C4
:1008EC00FFF7A0FF2046FFF7DBFB064A064904484A
:1008FC0000F03FFE024806B010BD00BFA000002073
:10090C00B800002068000020BD070A08704710B529
:10091C000446182100F032FE204610BDF8B50E46F4
:10092C00002400F10807051D17F8011D0A223046A6
:10093C0000F0FDFBAF42044401D12046F8BD002C71
:10094C00F2D02E21304600F0EFFB0444ECE700001F
:10095C0010B50446044B1122002140F8043B00F072
:10096C0031FE204610BD00BF60170A080346074A37
:10097C0010B543F8042B01F1100251F8044B9142CD
:10098C0043F8044BF9D10A781A7010BD60170A08A5
:10099C00024AC0E9002104220275704760170A0858
:1009AC0010B59DF8084044EA0324042344EA0244A9
:1009BC0044EA01644460037510BD000037B5044D72
:1009CC0005609DF818500095FFF7EAFF03B030BDA5
:1009DC0060170A0870470020704710B504461021B4
:1009EC0000F0CCFD204610BD08B5FFF7F6FF08BDA2
:1009FC00002230B54FF69C74026084808D888C8008
:100A0C000C68858004600A6030BD10B5044600682F
:100A1C00FFF78AFD204610BD38B5C468F4B12378C1
:100A2C00022B03D104F10C00FFF7EFFF656835B121
:100A3C002846FFF799FD1021284600F09FFDA56878
:100A4C0035B12846FFF790FD1021284600F096FDA1
:100A5C002046BDE83840142100F090BD38BD0B682D
:100A6C00036013B15A6801325A60704773B50E4671
:100A7C00044656F8043B0D4601A831460093FFF797
:100A8C00EEFF009B019A23600023626001A8019392
:100A9C000093FFF70CFB3046FFF709FB28460821B3
:100AAC0000F06CFD204602B070BD13B56C460B46D1
:100ABC00024603C884E8030093E8030082E80300BD
:100ACC0094E8030083E8030002B010BD826810B5FF
:100ADC000AB900F057FDC368BDE81040184708B5C7
:100AEC00006800F11001FFF7F1FF08BD826810B536
:100AFC000AB900F047FDC368BDE81040184708B5B7
:100B0C00006800F11001FFF7F1FF08BD38B50023B4
:100B1C000446036010200D46FFF7B7FA28B10123F5
:100B2C00C0E90133024BC56003602060204638BD2C
:100B3C0074170A0838B5002383608B6804460D4689
:100B4C002BB102229847EB68E360AB68A3602046A8
:100B5C0038BD0000F0B589B004686846FFF748FF5F
:100B6C004FF00203D4E84F2F002A03D1C4E8413FD1
:100B7C000029F7D125D104F10C0569462846FFF769
:100B8C0037FF0123BFF35B8F63700020BFF35B8FD4
:100B9C0004F1080353E8006F43E80002002AF9D17E
:100BAC00BFF35B8F6EB1FFF789FC78B129463046F5
:100BBC00FFF78CFF3046FFF7D7FC1021304600F0D2
:100BCC00DDFC6846FFF721FF09B0F0BD314602A8F5
:100BDC00FFF7B0FFE068B4F9105008B100F01EFD4B
:100BEC0006901020ADF81C50FFF74FFA0546E8B1FF
:100BFC00002787601820FFF748FA044688B10146A1
:100C0C00876002A8FFF751FF049BA268A360059BB5
:100C1C000492E26806A9E36004F110000592FFF764
:100C2C00E7FE084B2C60EB60074BAB6006A8FFF7A8
:100C3C00ECFE02A8FFF798FC002229460348FFF7B8
:100C4C0045FCB7E7EB0A0A08810D0A0815070A08E4
:100C5C002DE9F0478AB005460C46174698469DF894
:100C6C004890FFF7B3FB07AE824638BB4FF62E73A6
:100C7C00059005A93046ADF81830FFF7B9FE1420E1
:100C8C00FFF703FA044648B1022303700123C0E9BD
:100C9C0001AA437031460C30FFF7AAFE28462146C4
:100CAC0040F8044BFFF732FF3046FFF7AEFE05A8C5
:100CBC00FFF7ABFE28460AB0BDE8F0870C234FF0D7
:100CCC00000A1420CDE908AA0793FFF7DEF90146C4
:100CDC0028B1C0E901AA80F800A080F801A004A8FE
:100CEC000391FFF713FF224B08200893FFF7CDF970
:100CFC00824628B1039B04A940F8043BFFF7AFFEE2
:100D0C0042463946204600965FFA89F3CDF824A076
:100D1C00FFF764FBB8B9039B5B7803F0FF0293B950
:100D2C004FF69C7305A903A80592ADF81830FFF790
:100D3C0011FF05A8FFF769FE05A80999FFF796FEB4
:100D4C0006A8FFF7B4F9039B04A906A80593FFF7BF
:100D5C0086FE059B069A2B6000236A6006A8069304
:100D6C000593FFF7A4F904A8FFF7A1F9A2E700BFC8
:100D7C00450E0A08022AF8B5054607D0032A18D0F2
:100D8C00012A01D10B6803600020F8BD18200E6801
:100D9C00FFF77BF9044650B13146FFF7CBFE3069C3
:100DAC00B6F9147008B100F039FC2061A7822C60F0
:100DBC00EAE70468002CE7D004F11000FFF725FEE9
:100DCC002046FFF7D1FB1821204600F0D7FBDBE7CC
:100DDC0038B5002383608B6804460D462BB1022284
:100DEC009847EB68E360AB68A360204638BD022AE5
:100DFC0070B5044607D0032A12D0012A01D10B6822
:100E0C000360002070BD14200E68FFF73EF9054604
:100E1C0020B13146FFF7DCFF337C2B742560F0E703
:100E2C000468002CEDD02046FFF79EFB14212046D1
:100E3C0000F0A4FBE5E70000F0B5044689B00D46D0
:100E4C0001A81146FFF712FEA4B124B21DB1284629
:100E5C0000F0E4FB054601A803A90395ADF810408A
:100E6C00FFF778FE03A8FFF7D0FD02A8FFF71FF9E4
:100E7C0009B0F0BD0123019DD5E84F2F002A03D105
:100E8C00C5E8413F0029F7D1EFD12B73BFF35B8F3E
:100E9C006B70BFF35B8F2B1D53E8006F43E8004270
:100EAC00002AF9D1BFF35B8F002EDED02046FFF76E
:100EBC0005FB074660B1304605F10C01FFF716FE45
:100ECC003046FFF751FB1021304600F057FBCCE7C2
:100EDC00314603A8FFF77CFF2B7B10208DF81C30CC
:100EEC00FFF7D3F80546D0B187601420FFF7CDF893
:100EFC00044678B10146876003A8FFF7D6FD059B31
:100F0C00A268A360069B0592E268E3609DF81C3022
:100F1C0006922374064B2C60EB60064BAB6003A867
:100F2C00FFF722FB002229460348FFF7CFFAC7E759
:100F3C000B0B0A08FB0D0A0815070A08014B186071
:100F4C00704700BF0400002008B5134B43B1FFF7F6
:100F5C0085FC03681B699847002801DDAFF300800E
:100F6C000E4B43B100F052F903681B6998470028F7
:100F7C0001DDAFF300800A4B0BB1AFF30080094BDE
:100F8C0043B1FFF79BFC03681B699847002801DD00
:100F9C00AFF3008008BD00BF00000000000000009F
:100FAC00000000000000000008B5FFF7CDFFFFF7C0
:100FBC00FDF9014B186008BD4C0100200248034AA2
:100FCC000349121A00F0F0BA0040024004400240FB
:100FDC0060180A08002307B51A466FF077010093D2
:100FEC00FFF786FA03B05DF804FB000007B54388F1
:100FFC000A2B08D0502B0BD1094B1B684BB103B0FB
:10100C005DF804EB1847FFF7E5FF03B05DF804FB50
:10101C0000231A466FF077010093FFF769FAF4E7A3
:10102C00D000002038B5124C00211248FFF794FA7A
:10103C00114D2368AB420CBF012200220F4B1A70DA
:10104C0002D0FFF7BBFF2560FFF7A8F9044600F0BC
:10105C00C1FA0B4B13B12046AFF3008000210848B6
:10106C00FFF7C4F9BDE8384000210648FFF736BA4F
:10107C0000400240490F0A081E1C279ACC00002091
:10108C0000000000F90F0A0810B50446FFF76CFACF
:10109C00204610BD00230348034A0449836000F036
:1010AC0068BA00BFD40000206800002095100A0820
:1010BC000021FFF7FBB90000024B1A68024B1A60C3
:1010CC00704700BF00000020E4000020014B024AE2
:1010DC001A607047E8000020A4170A08F8B5064605
:1010EC000D4600248F18BD420CD0336830469B68E7
:1010FC0015F8011B9847031E01DB1C44F3E7002C79
:10110C0008BF1C462046F8BD70B505460C4608467F
:10111C0049B100F09EFA2B68024621462846BDE8EC
:10112C007040DB68184770BD03689B681847002344
:10113C00012A98BF0A2230B58BB00C468DF82430AA
:10114C0009A92546B4FBF2F404FB1253DBB2092BBC
:10115C0094BF30333733DBB2AA4201F8013DF0D9EA
:10116C00FFF7D2FF0BB030BD70474174704708B524
:10117C00007CFFF7F3F820EAE07008BD08B5007CAE
:10118C00FFF7C4F820EAE07008BD08B5007CFFF753
:10119C00CDF840EAE07008BD08B5007CFFF7BEF85A
:1011AC0040EAE07008BD007CFFF7C8B870B5467C1B
:1011BC0004460D462EB12946207CBDE87040FFF751
:1011CC009DB8007CFFF7CAF80028F4DC304670BDEF
:1011DC0010B50446142100F0D1F9204610BD0000D2
:1011EC004FF0000C10B50446084611464FF47A72C5
:1011FC00C4E901C2044A20742260012262741A46B6
:10120C00FFF774F8204610BDB0170A08F8B51A4C51
:10121C0026684EB98420FEF738FF054618B18422A3
:10122C00314600F0CFF92560144D2F684FB984205A
:10123C00FEF72BFF064618B18422394600F0C2F99E
:10124C002E600F4F3978BFF35B8F11F0010611D16F
:10125C003846FEF720FF68B1314622682B680948F2
:10126C00FFF7BEFF3846FEF71BFF074A0749054844
:10127C0000F07FF90348F8BDF0000020F4000020D6
:10128C00EC000020F80000206800002075110A080E
:10129C0010B50446006818B1FFF746F90023236027
:1012AC0010BD10B50446FFF7F3FF204610BD38B54E
:1012BC00B1F904300D4683800B4653F8062F0446D3
:1012CC00C0F806209B884381FFF7E2FF2B6813B11F
:1012DC00236000232B60204638BDB1F9043010B5D3
:1012EC000A6833B932B951F8063F03608B888380A2
:1012FC0010BD22B19488012C03D0042C06D00422FA
:10130C0005E092898C710B814A81ECE702220B81FA
:10131C004FF6FF738A714B81E5E710B5002404701A
:10132C0044804FF6FF740029848008DD01398B421C
:10133C0004D932F8113083800123037010BD01D120
:10134C000223FAE74180F9E7F0B50D46164600276F
:10135C008BB01A46129B04460193119B31460093A5
:10136C002846109B0297FFF7CDF8334601462A46D4
:10137C0005A8FFF7D2FF0F4D9DF81410BDF91620EC
:10138C00BDF818308DF82210284607A9ADF8242096
:10139C00ADF826300797ADF82070FFF788FF07A847
:1013AC00FFF776FF20462946FFF797FF20460BB044
:1013BC00F0BD00BF0C0100200222002010B5084B2C
:1013CC00084C1A60084B2060A080A071A360FFF746
:1013DC0065F82046BDE81040044A054900F0C9B83C
:1013EC00180100200C0100200000FFFF6800002005
:1013FC00AF120A0870B5002604460D4640F8086F77
:10140C00FEF7B4FF28462570FEF760FF20466660A5
:10141C0070BD0000002370B5202543801423084EB6
:10142C0004460380314685600561284600F0A8F823
:10143C0031466060284600F0A3F8E060204670BD9D
:10144C00D8170A0830B50F4D87B02978BFF35B8FDA
:10145C0011F0010413D12846FEF71DFE78B101A846
:10146C00FFF7D8FF214601AA0748FFF78DF9284658
:10147C00FEF716FE054A0649034800F07AF80248C2
:10148C0007B030BD1C0100202001002068000020A6
:10149C003D070A08002313B5074C1A461946204687
:1014AC000093FFF78BFA2046044A054902B0BDE8C9
:1014BC00104000F05EB800BF34010020680000202E
:1014CC0019090A08172870B5044601D9002070BD07
:1014DC00A0F10D03022B0BD9012826D8FFF7B2FF80
:1014EC000021007CFEF7E0FE80F00100C0B2EEE7C8
:1014FC00134E3178BFF35B8F11F001050FD13046DD
:10150C00FEF7C9FD58B129460E48FFF773FF304668
:10151C00FEF7C6FD0C4A0D490A4800F02AF8094BA3
:10152C001878FEF7DBFE0028D0D1123C012C05D830
:10153C00FFF76CFE007CFEF709FFD5E70120C6E73C
:10154C007C0000208000002068000020E5010A08D3
:10155C00172838B504460D460AD8FF2908D0FFF7DE
:10156C00B1FF28B129462046BDE83840FEF726BF1A
:10157C0038BD0B460146184600F008B8FEF789BD89
:10158C00FEF785BD08B5FEF7D7FF000010B5044681
:10159C000448134620B10A4602202146AFF30080CE
:1015AC0010BD00BF000000000A44914200F1FF335F
:1015BC0000D1704710B511F8014B914203F8014F5F
:1015CC00F9D110BD03460244934200D1704703F891
:1015DC00011BF9E738B50D4B04461D68AB6B7BB9A5
:1015EC001820FEF799FF0A4A0A4BA863C0E90023AA
:1015FC00094B012283600B2383810023C0E9042360
:10160C000022AB6B1C615A6138BD00BF0400002086
:10161C000E33CDAB34126DE6ECDE0500024B014609
:10162C00186800F003B800BF0400002070B5044631
:10163C0008460D4600F00DF8461C31462046FEF7D4
:10164C0083FF044618B132462946FFF7ADFF20460A
:10165C0070BD034613F8012B002AFBD1181A013870
:10166C00704700001D000A085D000A0885000A0882
:10167C0089000A0800000000537461746500536C03
:10168C00656570004F4E004F46460000000000009C
:10169C000000000087050A0891050A089B050A0846
:1016AC00A5050A08AF050A08BB050A08C7050A08FC
:1016BC00D3050A08DB050A08E5050A08F1050A083E
:1016CC000000000000000000F7060A08ED060A08FA
:1016DC00E3060A0855060A08D7060A08CB060A08C4
:1016EC00BF060A08B7060A08AD060A08A3060A08C8
:1016FC005F060A0800000000000000003D070A0811
:10170C0087070A085F070A083F070A0867070A08DD
:10171C006F070A0877070A087F070A08000000000D
:10172C0000000000BD070A0823080A08FB070A0886
:10173C00E9100A08ED070A08BF070A08CF070A08CC
:10174C001D080A08DF070A08B9070A08000000008C
:10175C000000000029090A0819090A081B090A08CF
:10176C000000000000000000E1090A08E7090A086F
:10177C00250A0A08F5090A08E3090A0825592D253E
:10178C006D2D25645425483A254D3A2553257A006C
:10179C0061736374696D6500617070000000000016
:1017AC000000000075110A08DD110A08B9110A08B9
:1017BC00E9100A0889110A08A5110A0897110A08E4
:1017CC00B3110A0877110A087B110A0800000000FF
:1017DC0000000000000000000000000000000000FD
:1017EC0000000000000000000000000000000000ED
:1017FC0000000000000000000000000000000000DD
:10180C0000000000000000000000000000000000CC
:10181C0000000000000000000000000000000000BC
:10182C0000000000000000000000000000000000AC
:10183C00CD010A0841060A0801070A08A1100A0886
:10184C00C5100A08D9100A08C5130A08A1140A08F9
:04185C000000000088
:041860000000000084
:101864009C170A080800002000000000FC170A0862
:101874001C180A08DC170A08000000000000000019
:101884000000000000000000000000000000000054
:101894000000000000000000000000000000000044
:1018A4000000000000000000000000000000000034
:1018B4000000000000000000000000000000000024
:0818C40000000000000000001C
:1018CC00FFFFFFFF00000102030405060708090AD9
:1018DC000B0C0D0E0F101112131415161718191AD4
:0818EC001B1C1D1E1F2028001B
:0418F40078563412DC
:04000005080A001CC9
:00000001FF
